{
  "_format": "hh-sol-artifact-1",
  "contractName": "RealEstateNFT",
  "sourceName": "contracts/RealEstateNFT.sol",
  "abi": [
    {
      "inputs": [
        {
          "internalType": "address",
          "name": "_treasury",
          "type": "address"
        }
      ],
      "stateMutability": "nonpayable",
      "type": "constructor"
    },
    {
      "inputs": [
        {
          "internalType": "address",
          "name": "sender",
          "type": "address"
        },
        {
          "internalType": "uint256",
          "name": "tokenId",
          "type": "uint256"
        },
        {
          "internalType": "address",
          "name": "owner",
          "type": "address"
        }
      ],
      "name": "ERC721IncorrectOwner",
      "type": "error"
    },
    {
      "inputs": [
        {
          "internalType": "address",
          "name": "operator",
          "type": "address"
        },
        {
          "internalType": "uint256",
          "name": "tokenId",
          "type": "uint256"
        }
      ],
      "name": "ERC721InsufficientApproval",
      "type": "error"
    },
    {
      "inputs": [
        {
          "internalType": "address",
          "name": "approver",
          "type": "address"
        }
      ],
      "name": "ERC721InvalidApprover",
      "type": "error"
    },
    {
      "inputs": [
        {
          "internalType": "address",
          "name": "operator",
          "type": "address"
        }
      ],
      "name": "ERC721InvalidOperator",
      "type": "error"
    },
    {
      "inputs": [
        {
          "internalType": "address",
          "name": "owner",
          "type": "address"
        }
      ],
      "name": "ERC721InvalidOwner",
      "type": "error"
    },
    {
      "inputs": [
        {
          "internalType": "address",
          "name": "receiver",
          "type": "address"
        }
      ],
      "name": "ERC721InvalidReceiver",
      "type": "error"
    },
    {
      "inputs": [
        {
          "internalType": "address",
          "name": "sender",
          "type": "address"
        }
      ],
      "name": "ERC721InvalidSender",
      "type": "error"
    },
    {
      "inputs": [
        {
          "internalType": "uint256",
          "name": "tokenId",
          "type": "uint256"
        }
      ],
      "name": "ERC721NonexistentToken",
      "type": "error"
    },
    {
      "inputs": [
        {
          "internalType": "address",
          "name": "owner",
          "type": "address"
        }
      ],
      "name": "OwnableInvalidOwner",
      "type": "error"
    },
    {
      "inputs": [
        {
          "internalType": "address",
          "name": "account",
          "type": "address"
        }
      ],
      "name": "OwnableUnauthorizedAccount",
      "type": "error"
    },
    {
      "anonymous": false,
      "inputs": [
        {
          "indexed": true,
          "internalType": "address",
          "name": "owner",
          "type": "address"
        },
        {
          "indexed": true,
          "internalType": "address",
          "name": "approved",
          "type": "address"
        },
        {
          "indexed": true,
          "internalType": "uint256",
          "name": "tokenId",
          "type": "uint256"
        }
      ],
      "name": "Approval",
      "type": "event"
    },
    {
      "anonymous": false,
      "inputs": [
        {
          "indexed": true,
          "internalType": "address",
          "name": "owner",
          "type": "address"
        },
        {
          "indexed": true,
          "internalType": "address",
          "name": "operator",
          "type": "address"
        },
        {
          "indexed": false,
          "internalType": "bool",
          "name": "approved",
          "type": "bool"
        }
      ],
      "name": "ApprovalForAll",
      "type": "event"
    },
    {
      "anonymous": false,
      "inputs": [
        {
          "indexed": false,
          "internalType": "uint256",
          "name": "_fromTokenId",
          "type": "uint256"
        },
        {
          "indexed": false,
          "internalType": "uint256",
          "name": "_toTokenId",
          "type": "uint256"
        }
      ],
      "name": "BatchMetadataUpdate",
      "type": "event"
    },
    {
      "anonymous": false,
      "inputs": [
        {
          "indexed": false,
          "internalType": "uint256",
          "name": "_tokenId",
          "type": "uint256"
        }
      ],
      "name": "MetadataUpdate",
      "type": "event"
    },
    {
      "anonymous": false,
      "inputs": [
        {
          "indexed": true,
          "internalType": "uint256",
          "name": "tokenId",
          "type": "uint256"
        },
        {
          "indexed": false,
          "internalType": "string",
          "name": "newMetadataURI",
          "type": "string"
        }
      ],
      "name": "MetadataUpdated",
      "type": "event"
    },
    {
      "anonymous": false,
      "inputs": [
        {
          "indexed": true,
          "internalType": "address",
          "name": "previousOwner",
          "type": "address"
        },
        {
          "indexed": true,
          "internalType": "address",
          "name": "newOwner",
          "type": "address"
        }
      ],
      "name": "OwnershipTransferred",
      "type": "event"
    },
    {
      "anonymous": false,
      "inputs": [
        {
          "indexed": true,
          "internalType": "uint256",
          "name": "tokenId",
          "type": "uint256"
        },
        {
          "indexed": false,
          "internalType": "uint256",
          "name": "price",
          "type": "uint256"
        }
      ],
      "name": "PropertyListed",
      "type": "event"
    },
    {
      "anonymous": false,
      "inputs": [
        {
          "indexed": true,
          "internalType": "address",
          "name": "owner",
          "type": "address"
        },
        {
          "indexed": false,
          "internalType": "uint256",
          "name": "tokenId",
          "type": "uint256"
        },
        {
          "indexed": false,
          "internalType": "string",
          "name": "metadataURI",
          "type": "string"
        }
      ],
      "name": "PropertyMinted",
      "type": "event"
    },
    {
      "anonymous": false,
      "inputs": [
        {
          "indexed": true,
          "internalType": "uint256",
          "name": "tokenId",
          "type": "uint256"
        },
        {
          "indexed": true,
          "internalType": "address",
          "name": "buyer",
          "type": "address"
        },
        {
          "indexed": false,
          "internalType": "uint256",
          "name": "price",
          "type": "uint256"
        },
        {
          "indexed": false,
          "internalType": "string",
          "name": "newMetadataURI",
          "type": "string"
        }
      ],
      "name": "PropertySold",
      "type": "event"
    },
    {
      "anonymous": false,
      "inputs": [
        {
          "indexed": true,
          "internalType": "address",
          "name": "from",
          "type": "address"
        },
        {
          "indexed": true,
          "internalType": "address",
          "name": "to",
          "type": "address"
        },
        {
          "indexed": true,
          "internalType": "uint256",
          "name": "tokenId",
          "type": "uint256"
        }
      ],
      "name": "Transfer",
      "type": "event"
    },
    {
      "inputs": [
        {
          "internalType": "address",
          "name": "to",
          "type": "address"
        },
        {
          "internalType": "uint256",
          "name": "tokenId",
          "type": "uint256"
        }
      ],
      "name": "approve",
      "outputs": [],
      "stateMutability": "nonpayable",
      "type": "function"
    },
    {
      "inputs": [
        {
          "internalType": "address",
          "name": "owner",
          "type": "address"
        }
      ],
      "name": "balanceOf",
      "outputs": [
        {
          "internalType": "uint256",
          "name": "",
          "type": "uint256"
        }
      ],
      "stateMutability": "view",
      "type": "function"
    },
    {
      "inputs": [
        {
          "internalType": "uint256",
          "name": "tokenId",
          "type": "uint256"
        },
        {
          "internalType": "string",
          "name": "newMetadataURI",
          "type": "string"
        }
      ],
      "name": "buyProperty",
      "outputs": [],
      "stateMutability": "payable",
      "type": "function"
    },
    {
      "inputs": [
        {
          "internalType": "uint256",
          "name": "tokenId",
          "type": "uint256"
        }
      ],
      "name": "delistProperty",
      "outputs": [],
      "stateMutability": "nonpayable",
      "type": "function"
    },
    {
      "inputs": [
        {
          "internalType": "uint256",
          "name": "tokenId",
          "type": "uint256"
        }
      ],
      "name": "getApproved",
      "outputs": [
        {
          "internalType": "address",
          "name": "",
          "type": "address"
        }
      ],
      "stateMutability": "view",
      "type": "function"
    },
    {
      "inputs": [
        {
          "internalType": "uint256",
          "name": "tokenId",
          "type": "uint256"
        }
      ],
      "name": "getLastOwners",
      "outputs": [
        {
          "internalType": "address[3]",
          "name": "",
          "type": "address[3]"
        }
      ],
      "stateMutability": "view",
      "type": "function"
    },
    {
      "inputs": [],
      "name": "getLatestTokenId",
      "outputs": [
        {
          "internalType": "uint256",
          "name": "",
          "type": "uint256"
        }
      ],
      "stateMutability": "view",
      "type": "function"
    },
    {
      "inputs": [
        {
          "internalType": "uint256",
          "name": "tokenId",
          "type": "uint256"
        }
      ],
      "name": "getPropertyPrice",
      "outputs": [
        {
          "internalType": "uint256",
          "name": "",
          "type": "uint256"
        }
      ],
      "stateMutability": "view",
      "type": "function"
    },
    {
      "inputs": [
        {
          "internalType": "address",
          "name": "owner",
          "type": "address"
        },
        {
          "internalType": "address",
          "name": "operator",
          "type": "address"
        }
      ],
      "name": "isApprovedForAll",
      "outputs": [
        {
          "internalType": "bool",
          "name": "",
          "type": "bool"
        }
      ],
      "stateMutability": "view",
      "type": "function"
    },
    {
      "inputs": [
        {
          "internalType": "uint256",
          "name": "tokenId",
          "type": "uint256"
        },
        {
          "internalType": "uint256",
          "name": "price",
          "type": "uint256"
        }
      ],
      "name": "listProperty",
      "outputs": [],
      "stateMutability": "nonpayable",
      "type": "function"
    },
    {
      "inputs": [
        {
          "internalType": "string",
          "name": "metadataURI",
          "type": "string"
        },
        {
          "internalType": "uint256",
          "name": "price",
          "type": "uint256"
        }
      ],
      "name": "mintProperty",
      "outputs": [],
      "stateMutability": "nonpayable",
      "type": "function"
    },
    {
      "inputs": [],
      "name": "name",
      "outputs": [
        {
          "internalType": "string",
          "name": "",
          "type": "string"
        }
      ],
      "stateMutability": "view",
      "type": "function"
    },
    {
      "inputs": [],
      "name": "owner",
      "outputs": [
        {
          "internalType": "address",
          "name": "",
          "type": "address"
        }
      ],
      "stateMutability": "view",
      "type": "function"
    },
    {
      "inputs": [
        {
          "internalType": "uint256",
          "name": "tokenId",
          "type": "uint256"
        }
      ],
      "name": "ownerOf",
      "outputs": [
        {
          "internalType": "address",
          "name": "",
          "type": "address"
        }
      ],
      "stateMutability": "view",
      "type": "function"
    },
    {
      "inputs": [
        {
          "internalType": "uint256",
          "name": "",
          "type": "uint256"
        }
      ],
      "name": "properties",
      "outputs": [
        {
          "internalType": "bool",
          "name": "forSale",
          "type": "bool"
        },
        {
          "internalType": "string",
          "name": "metadataURI",
          "type": "string"
        },
        {
          "internalType": "uint256",
          "name": "price",
          "type": "uint256"
        }
      ],
      "stateMutability": "view",
      "type": "function"
    },
    {
      "inputs": [],
      "name": "renounceOwnership",
      "outputs": [],
      "stateMutability": "nonpayable",
      "type": "function"
    },
    {
      "inputs": [],
      "name": "royaltyFee",
      "outputs": [
        {
          "internalType": "uint256",
          "name": "",
          "type": "uint256"
        }
      ],
      "stateMutability": "view",
      "type": "function"
    },
    {
      "inputs": [
        {
          "internalType": "address",
          "name": "from",
          "type": "address"
        },
        {
          "internalType": "address",
          "name": "to",
          "type": "address"
        },
        {
          "internalType": "uint256",
          "name": "tokenId",
          "type": "uint256"
        }
      ],
      "name": "safeTransferFrom",
      "outputs": [],
      "stateMutability": "nonpayable",
      "type": "function"
    },
    {
      "inputs": [
        {
          "internalType": "address",
          "name": "from",
          "type": "address"
        },
        {
          "internalType": "address",
          "name": "to",
          "type": "address"
        },
        {
          "internalType": "uint256",
          "name": "tokenId",
          "type": "uint256"
        },
        {
          "internalType": "bytes",
          "name": "data",
          "type": "bytes"
        }
      ],
      "name": "safeTransferFrom",
      "outputs": [],
      "stateMutability": "nonpayable",
      "type": "function"
    },
    {
      "inputs": [
        {
          "internalType": "address",
          "name": "operator",
          "type": "address"
        },
        {
          "internalType": "bool",
          "name": "approved",
          "type": "bool"
        }
      ],
      "name": "setApprovalForAll",
      "outputs": [],
      "stateMutability": "nonpayable",
      "type": "function"
    },
    {
      "inputs": [
        {
          "internalType": "uint256",
          "name": "_fee",
          "type": "uint256"
        }
      ],
      "name": "setRoyaltyFee",
      "outputs": [],
      "stateMutability": "nonpayable",
      "type": "function"
    },
    {
      "inputs": [
        {
          "internalType": "bytes4",
          "name": "interfaceId",
          "type": "bytes4"
        }
      ],
      "name": "supportsInterface",
      "outputs": [
        {
          "internalType": "bool",
          "name": "",
          "type": "bool"
        }
      ],
      "stateMutability": "view",
      "type": "function"
    },
    {
      "inputs": [],
      "name": "symbol",
      "outputs": [
        {
          "internalType": "string",
          "name": "",
          "type": "string"
        }
      ],
      "stateMutability": "view",
      "type": "function"
    },
    {
      "inputs": [
        {
          "internalType": "uint256",
          "name": "tokenId",
          "type": "uint256"
        }
      ],
      "name": "tokenExists",
      "outputs": [
        {
          "internalType": "bool",
          "name": "",
          "type": "bool"
        }
      ],
      "stateMutability": "view",
      "type": "function"
    },
    {
      "inputs": [
        {
          "internalType": "uint256",
          "name": "tokenId",
          "type": "uint256"
        }
      ],
      "name": "tokenURI",
      "outputs": [
        {
          "internalType": "string",
          "name": "",
          "type": "string"
        }
      ],
      "stateMutability": "view",
      "type": "function"
    },
    {
      "inputs": [
        {
          "internalType": "address",
          "name": "from",
          "type": "address"
        },
        {
          "internalType": "address",
          "name": "to",
          "type": "address"
        },
        {
          "internalType": "uint256",
          "name": "tokenId",
          "type": "uint256"
        }
      ],
      "name": "transferFrom",
      "outputs": [],
      "stateMutability": "nonpayable",
      "type": "function"
    },
    {
      "inputs": [
        {
          "internalType": "address",
          "name": "newOwner",
          "type": "address"
        }
      ],
      "name": "transferOwnership",
      "outputs": [],
      "stateMutability": "nonpayable",
      "type": "function"
    },
    {
      "inputs": [],
      "name": "treasury",
      "outputs": [
        {
          "internalType": "address",
          "name": "",
          "type": "address"
        }
      ],
      "stateMutability": "view",
      "type": "function"
    },
    {
      "inputs": [
        {
          "internalType": "uint256",
          "name": "tokenId",
          "type": "uint256"
        },
        {
          "internalType": "string",
          "name": "newMetadataURI",
          "type": "string"
        }
      ],
      "name": "updateMetadata",
      "outputs": [],
      "stateMutability": "nonpayable",
      "type": "function"
    }
  ],
  "bytecode": "0x6080604052600560095534801561001557600080fd5b506040516144b63803806144b6833981810160405281019061003791906102b8565b336040518060400160405280600d81526020017f5265616c4573746174654e4654000000000000000000000000000000000000008152506040518060400160405280600681526020017f52452d4e4654000000000000000000000000000000000000000000000000000081525081600090816100b39190610535565b5080600190816100c39190610535565b505050600073ffffffffffffffffffffffffffffffffffffffff168173ffffffffffffffffffffffffffffffffffffffff16036101385760006040517f1e4fbdf700000000000000000000000000000000000000000000000000000000815260040161012f9190610616565b60405180910390fd5b6101478161018f60201b60201c565b5080600a60006101000a81548173ffffffffffffffffffffffffffffffffffffffff021916908373ffffffffffffffffffffffffffffffffffffffff16021790555050610631565b6000600760009054906101000a900473ffffffffffffffffffffffffffffffffffffffff16905081600760006101000a81548173ffffffffffffffffffffffffffffffffffffffff021916908373ffffffffffffffffffffffffffffffffffffffff1602179055508173ffffffffffffffffffffffffffffffffffffffff168173ffffffffffffffffffffffffffffffffffffffff167f8be0079c531659141344cd1fd0a4f28419497f9722a3daafe3b4186f6b6457e060405160405180910390a35050565b600080fd5b600073ffffffffffffffffffffffffffffffffffffffff82169050919050565b60006102858261025a565b9050919050565b6102958161027a565b81146102a057600080fd5b50565b6000815190506102b28161028c565b92915050565b6000602082840312156102ce576102cd610255565b5b60006102dc848285016102a3565b91505092915050565b600081519050919050565b7f4e487b7100000000000000000000000000000000000000000000000000000000600052604160045260246000fd5b7f4e487b7100000000000000000000000000000000000000000000000000000000600052602260045260246000fd5b6000600282049050600182168061036657607f821691505b6020821081036103795761037861031f565b5b50919050565b60008190508160005260206000209050919050565b60006020601f8301049050919050565b600082821b905092915050565b6000600883026103e17fffffffffffffffffffffffffffffffffffffffffffffffffffffffffffffffff826103a4565b6103eb86836103a4565b95508019841693508086168417925050509392505050565b6000819050919050565b6000819050919050565b600061043261042d61042884610403565b61040d565b610403565b9050919050565b6000819050919050565b61044c83610417565b61046061045882610439565b8484546103b1565b825550505050565b600090565b610475610468565b610480818484610443565b505050565b5b818110156104a45761049960008261046d565b600181019050610486565b5050565b601f8211156104e9576104ba8161037f565b6104c384610394565b810160208510156104d2578190505b6104e66104de85610394565b830182610485565b50505b505050565b600082821c905092915050565b600061050c600019846008026104ee565b1980831691505092915050565b600061052583836104fb565b9150826002028217905092915050565b61053e826102e5565b67ffffffffffffffff811115610557576105566102f0565b5b610561825461034e565b61056c8282856104a8565b600060209050601f83116001811461059f576000841561058d578287015190505b6105978582610519565b8655506105ff565b601f1984166105ad8661037f565b60005b828110156105d5578489015182556001820191506020850194506020810190506105b0565b868310156105f257848901516105ee601f8916826104fb565b8355505b6001600288020188555050505b505050505050565b6106108161027a565b82525050565b600060208201905061062b6000830184610607565b92915050565b613e76806106406000396000f3fe6080604052600436106101c15760003560e01c806353c8388e116100f7578063a22cb46511610095578063cb5c965a11610064578063cb5c965a14610640578063e985e9c51461067d578063f2fde38b146106ba578063f7b10808146106e3576101c1565b8063a22cb46514610586578063b88d4fde146105af578063b8997a97146105d8578063c87b56dd14610603576101c1565b806370a08231116100d157806370a08231146104dc578063715018a6146105195780638da5cb5b1461053057806395d89b411461055b576101c1565b806353c8388e1461044b57806361d027b3146104745780636352211e1461049f576101c1565b80631955cf811161016457806325d112a91161013e57806325d112a9146103a55780633e4086e5146103d057806342842e0e146103f95780634eda529b14610422576101c1565b80631955cf81146103375780631cc2ea7a1461035357806323b872dd1461037c576101c1565b80630789752c116101a05780630789752c1461026b578063081812fc146102a8578063095ea7b3146102e55780630f8ab50f1461030e576101c1565b8062923f9e146101c657806301ffc9a71461020357806306fdde0314610240575b600080fd5b3480156101d257600080fd5b506101ed60048036038101906101e89190612c50565b610722565b6040516101fa9190612c98565b60405180910390f35b34801561020f57600080fd5b5061022a60048036038101906102259190612d0b565b610763565b6040516102379190612c98565b60405180910390f35b34801561024c57600080fd5b506102556107c4565b6040516102629190612dc8565b60405180910390f35b34801561027757600080fd5b50610292600480360381019061028d9190612c50565b610856565b60405161029f9190612df9565b60405180910390f35b3480156102b457600080fd5b506102cf60048036038101906102ca9190612c50565b610876565b6040516102dc9190612e55565b60405180910390f35b3480156102f157600080fd5b5061030c60048036038101906103079190612e9c565b610892565b005b34801561031a57600080fd5b5061033560048036038101906103309190613011565b6108a8565b005b610351600480360381019061034c919061306d565b610a6a565b005b34801561035f57600080fd5b5061037a60048036038101906103759190612c50565b610ee5565b005b34801561038857600080fd5b506103a3600480360381019061039e91906130c9565b611045565b005b3480156103b157600080fd5b506103ba611147565b6040516103c79190612df9565b60405180910390f35b3480156103dc57600080fd5b506103f760048036038101906103f29190612c50565b611151565b005b34801561040557600080fd5b50610420600480360381019061041b91906130c9565b6111a7565b005b34801561042e57600080fd5b506104496004803603810190610444919061311c565b6111c7565b005b34801561045757600080fd5b50610472600480360381019061046d919061306d565b61132c565b005b34801561048057600080fd5b506104896113e6565b6040516104969190612e55565b60405180910390f35b3480156104ab57600080fd5b506104c660048036038101906104c19190612c50565b61140c565b6040516104d39190612e55565b60405180910390f35b3480156104e857600080fd5b5061050360048036038101906104fe919061315c565b61141e565b6040516105109190612df9565b60405180910390f35b34801561052557600080fd5b5061052e6114d8565b005b34801561053c57600080fd5b506105456114ec565b6040516105529190612e55565b60405180910390f35b34801561056757600080fd5b50610570611516565b60405161057d9190612dc8565b60405180910390f35b34801561059257600080fd5b506105ad60048036038101906105a891906131b5565b6115a8565b005b3480156105bb57600080fd5b506105d660048036038101906105d19190613296565b6115be565b005b3480156105e457600080fd5b506105ed6115e3565b6040516105fa9190612df9565b60405180910390f35b34801561060f57600080fd5b5061062a60048036038101906106259190612c50565b6115e9565b6040516106379190612dc8565b60405180910390f35b34801561064c57600080fd5b5061066760048036038101906106629190612c50565b6116fc565b60405161067491906133c4565b60405180910390f35b34801561068957600080fd5b506106a4600480360381019061069f91906133df565b611793565b6040516106b19190612c98565b60405180910390f35b3480156106c657600080fd5b506106e160048036038101906106dc919061315c565b611827565b005b3480156106ef57600080fd5b5061070a60048036038101906107059190612c50565b6118ad565b6040516107199392919061341f565b60405180910390f35b60008073ffffffffffffffffffffffffffffffffffffffff166107448361196c565b73ffffffffffffffffffffffffffffffffffffffff1614159050919050565b6000634906490660e01b7bffffffffffffffffffffffffffffffffffffffffffffffffffffffff1916827bffffffffffffffffffffffffffffffffffffffffffffffffffffffff191614806107bd57506107bc826119a9565b5b9050919050565b6060600080546107d39061348c565b80601f01602080910402602001604051908101604052809291908181526020018280546107ff9061348c565b801561084c5780601f106108215761010080835404028352916020019161084c565b820191906000526020600020905b81548152906001019060200180831161082f57829003601f168201915b5050505050905090565b6000600b6000838152602001908152602001600020600201549050919050565b600061088182611a8b565b5061088b82611b13565b9050919050565b6108a4828261089f611b50565b611b58565b5050565b6108b0611b6a565b600860008154809291906108c3906134ec565b9190505550600060085490506108d93382611bf1565b6108e38184611c0f565b604051806080016040528060001515815260200184815260200183815260200160405180606001604052803373ffffffffffffffffffffffffffffffffffffffff1673ffffffffffffffffffffffffffffffffffffffff168152602001600073ffffffffffffffffffffffffffffffffffffffff1673ffffffffffffffffffffffffffffffffffffffff168152602001600073ffffffffffffffffffffffffffffffffffffffff1673ffffffffffffffffffffffffffffffffffffffff16815250815250600b600083815260200190815260200160002060008201518160000160006101000a81548160ff02191690831515021790555060208201518160010190816109ef91906136e0565b5060408201518160020155606082015181600301906003610a11929190612b4a565b509050503373ffffffffffffffffffffffffffffffffffffffff167f445a69bdadc6b45ffeb6852f8fd6cde26d92384f58f1c54e5dc5f9e681c293518285604051610a5d9291906137b2565b60405180910390a2505050565b600b600083815260200190815260200160002060000160009054906101000a900460ff16610acd576040517f08c379a0000000000000000000000000000000000000000000000000000000008152600401610ac49061382e565b60405180910390fd5b610ad682610722565b610b15576040517f08c379a0000000000000000000000000000000000000000000000000000000008152600401610b0c9061389a565b60405180910390fd5b6000600b600084815260200190815260200160002060020154905080341015610b73576040517f08c379a0000000000000000000000000000000000000000000000000000000008152600401610b6a90613906565b60405180910390fd5b6000610b7e8461140c565b90508073ffffffffffffffffffffffffffffffffffffffff163373ffffffffffffffffffffffffffffffffffffffff1603610bee576040517f08c379a0000000000000000000000000000000000000000000000000000000008152600401610be590613972565b60405180910390fd5b6000606460095434610c009190613992565b610c0a9190613a03565b905060008134610c1a9190613a34565b90508273ffffffffffffffffffffffffffffffffffffffff166108fc829081150290604051600060405180830381858888f19350505050158015610c62573d6000803e3d6000fd5b50600a60009054906101000a900473ffffffffffffffffffffffffffffffffffffffff1673ffffffffffffffffffffffffffffffffffffffff166108fc839081150290604051600060405180830381858888f19350505050158015610ccb573d6000803e3d6000fd5b50610cd7833388611c6b565b6000600b600088815260200190815260200160002060000160006101000a81548160ff02191690831515021790555060405180606001604052803373ffffffffffffffffffffffffffffffffffffffff1673ffffffffffffffffffffffffffffffffffffffff168152602001600b6000898152602001908152602001600020600301600060038110610d6c57610d6b613a68565b5b0160009054906101000a900473ffffffffffffffffffffffffffffffffffffffff1673ffffffffffffffffffffffffffffffffffffffff1673ffffffffffffffffffffffffffffffffffffffff168152602001600b6000898152602001908152602001600020600301600160038110610de857610de7613a68565b5b0160009054906101000a900473ffffffffffffffffffffffffffffffffffffffff1673ffffffffffffffffffffffffffffffffffffffff1673ffffffffffffffffffffffffffffffffffffffff16815250600b6000888152602001908152602001600020600301906003610e5d929190612b4a565b5084600b60008881526020019081526020016000206001019081610e8191906136e0565b50610e8c8686611c0f565b3373ffffffffffffffffffffffffffffffffffffffff16867fe433a8089f5064459c38b03b7d3464b9c3b1fb800515c58036b3dd57b4808d0d8688604051610ed59291906137b2565b60405180910390a3505050505050565b3373ffffffffffffffffffffffffffffffffffffffff16610f058261140c565b73ffffffffffffffffffffffffffffffffffffffff1614610f5b576040517f08c379a0000000000000000000000000000000000000000000000000000000008152600401610f5290613ae3565b60405180910390fd5b600b600082815260200190815260200160002060000160009054906101000a900460ff16610fbe576040517f08c379a0000000000000000000000000000000000000000000000000000000008152600401610fb590613b4f565b60405180910390fd5b6000600b600083815260200190815260200160002060000160006101000a81548160ff0219169083151502179055506000600b600083815260200190815260200160002060020181905550807fd2acfbe1632c42ab1e36cabad615126d27fa805ef1e2efc7ceec17c60ffbaafd600060405161103a9190613baa565b60405180910390a250565b600073ffffffffffffffffffffffffffffffffffffffff168273ffffffffffffffffffffffffffffffffffffffff16036110b75760006040517f64a0ae920000000000000000000000000000000000000000000000000000000081526004016110ae9190612e55565b60405180910390fd5b60006110cb83836110c6611b50565b611dd8565b90508373ffffffffffffffffffffffffffffffffffffffff168173ffffffffffffffffffffffffffffffffffffffff1614611141578382826040517f64283d7b00000000000000000000000000000000000000000000000000000000815260040161113893929190613bc5565b60405180910390fd5b50505050565b6000600854905090565b611159611b6a565b600a81111561119d576040517f08c379a000000000000000000000000000000000000000000000000000000000815260040161119490613c48565b60405180910390fd5b8060098190555050565b6111c2838383604051806020016040528060008152506115be565b505050565b3373ffffffffffffffffffffffffffffffffffffffff166111e78361140c565b73ffffffffffffffffffffffffffffffffffffffff161461123d576040517f08c379a000000000000000000000000000000000000000000000000000000000815260040161123490613ae3565b60405180910390fd5b60008111611280576040517f08c379a000000000000000000000000000000000000000000000000000000000815260040161127790613cb4565b60405180910390fd5b6001600b600084815260200190815260200160002060000160006101000a81548160ff021916908315150217905550670de0b6b3a7640000816112c39190613992565b600b600084815260200190815260200160002060020181905550817fd2acfbe1632c42ab1e36cabad615126d27fa805ef1e2efc7ceec17c60ffbaafd670de0b6b3a7640000836113139190613992565b6040516113209190612df9565b60405180910390a25050565b611334611b6a565b61133d82610722565b61137c576040517f08c379a00000000000000000000000000000000000000000000000000000000081526004016113739061389a565b60405180910390fd5b80600b6000848152602001908152602001600020600101908161139f91906136e0565b506113aa8282611c0f565b817f459157ba24c7ab9878b165ef465fa6ae2ab42bcd8445f576be378768b0c47309826040516113da9190612dc8565b60405180910390a25050565b600a60009054906101000a900473ffffffffffffffffffffffffffffffffffffffff1681565b600061141782611a8b565b9050919050565b60008073ffffffffffffffffffffffffffffffffffffffff168273ffffffffffffffffffffffffffffffffffffffff16036114915760006040517f89c62b640000000000000000000000000000000000000000000000000000000081526004016114889190612e55565b60405180910390fd5b600360008373ffffffffffffffffffffffffffffffffffffffff1673ffffffffffffffffffffffffffffffffffffffff168152602001908152602001600020549050919050565b6114e0611b6a565b6114ea6000611ff2565b565b6000600760009054906101000a900473ffffffffffffffffffffffffffffffffffffffff16905090565b6060600180546115259061348c565b80601f01602080910402602001604051908101604052809291908181526020018280546115519061348c565b801561159e5780601f106115735761010080835404028352916020019161159e565b820191906000526020600020905b81548152906001019060200180831161158157829003601f168201915b5050505050905090565b6115ba6115b3611b50565b83836120b8565b5050565b6115c9848484611045565b6115dd6115d4611b50565b85858585612227565b50505050565b60095481565b60606115f482611a8b565b5060006006600084815260200190815260200160002080546116159061348c565b80601f01602080910402602001604051908101604052809291908181526020018280546116419061348c565b801561168e5780601f106116635761010080835404028352916020019161168e565b820191906000526020600020905b81548152906001019060200180831161167157829003601f168201915b50505050509050600061169f6123d8565b905060008151036116b45781925050506116f7565b6000825111156116e95780826040516020016116d1929190613d10565b604051602081830303815290604052925050506116f7565b6116f2846123ef565b925050505b919050565b611704612bc7565b600b6000838152602001908152602001600020600301600380602002604051908101604052809291908260038015611787576020028201915b8160009054906101000a900473ffffffffffffffffffffffffffffffffffffffff1673ffffffffffffffffffffffffffffffffffffffff168152602001906001019080831161173d575b50505050509050919050565b6000600560008473ffffffffffffffffffffffffffffffffffffffff1673ffffffffffffffffffffffffffffffffffffffff16815260200190815260200160002060008373ffffffffffffffffffffffffffffffffffffffff1673ffffffffffffffffffffffffffffffffffffffff16815260200190815260200160002060009054906101000a900460ff16905092915050565b61182f611b6a565b600073ffffffffffffffffffffffffffffffffffffffff168173ffffffffffffffffffffffffffffffffffffffff16036118a15760006040517f1e4fbdf70000000000000000000000000000000000000000000000000000000081526004016118989190612e55565b60405180910390fd5b6118aa81611ff2565b50565b600b6020528060005260406000206000915090508060000160009054906101000a900460ff16908060010180546118e39061348c565b80601f016020809104026020016040519081016040528092919081815260200182805461190f9061348c565b801561195c5780601f106119315761010080835404028352916020019161195c565b820191906000526020600020905b81548152906001019060200180831161193f57829003601f168201915b5050505050908060020154905083565b60006002600083815260200190815260200160002060009054906101000a900473ffffffffffffffffffffffffffffffffffffffff169050919050565b60007f80ac58cd000000000000000000000000000000000000000000000000000000007bffffffffffffffffffffffffffffffffffffffffffffffffffffffff1916827bffffffffffffffffffffffffffffffffffffffffffffffffffffffff19161480611a7457507f5b5e139f000000000000000000000000000000000000000000000000000000007bffffffffffffffffffffffffffffffffffffffffffffffffffffffff1916827bffffffffffffffffffffffffffffffffffffffffffffffffffffffff1916145b80611a845750611a8382612458565b5b9050919050565b600080611a978361196c565b9050600073ffffffffffffffffffffffffffffffffffffffff168173ffffffffffffffffffffffffffffffffffffffff1603611b0a57826040517f7e273289000000000000000000000000000000000000000000000000000000008152600401611b019190612df9565b60405180910390fd5b80915050919050565b60006004600083815260200190815260200160002060009054906101000a900473ffffffffffffffffffffffffffffffffffffffff169050919050565b600033905090565b611b6583838360016124c2565b505050565b611b72611b50565b73ffffffffffffffffffffffffffffffffffffffff16611b906114ec565b73ffffffffffffffffffffffffffffffffffffffff1614611bef57611bb3611b50565b6040517f118cdaa7000000000000000000000000000000000000000000000000000000008152600401611be69190612e55565b60405180910390fd5b565b611c0b828260405180602001604052806000815250612687565b5050565b80600660008481526020019081526020016000209081611c2f91906136e0565b507ff8e1a15aba9398e019f0b49df1a4fde98ee17ae345cb5f6b5e2c27f5033e8ce782604051611c5f9190612df9565b60405180910390a15050565b600073ffffffffffffffffffffffffffffffffffffffff168273ffffffffffffffffffffffffffffffffffffffff1603611cdd5760006040517f64a0ae92000000000000000000000000000000000000000000000000000000008152600401611cd49190612e55565b60405180910390fd5b6000611ceb83836000611dd8565b9050600073ffffffffffffffffffffffffffffffffffffffff168173ffffffffffffffffffffffffffffffffffffffff1603611d5e57816040517f7e273289000000000000000000000000000000000000000000000000000000008152600401611d559190612df9565b60405180910390fd5b8373ffffffffffffffffffffffffffffffffffffffff168173ffffffffffffffffffffffffffffffffffffffff1614611dd2578382826040517f64283d7b000000000000000000000000000000000000000000000000000000008152600401611dc993929190613bc5565b60405180910390fd5b50505050565b600080611de48461196c565b9050600073ffffffffffffffffffffffffffffffffffffffff168373ffffffffffffffffffffffffffffffffffffffff1614611e2657611e258184866126ab565b5b600073ffffffffffffffffffffffffffffffffffffffff168173ffffffffffffffffffffffffffffffffffffffff1614611eb757611e686000856000806124c2565b6001600360008373ffffffffffffffffffffffffffffffffffffffff1673ffffffffffffffffffffffffffffffffffffffff168152602001908152602001600020600082825403925050819055505b600073ffffffffffffffffffffffffffffffffffffffff168573ffffffffffffffffffffffffffffffffffffffff1614611f3a576001600360008773ffffffffffffffffffffffffffffffffffffffff1673ffffffffffffffffffffffffffffffffffffffff168152602001908152602001600020600082825401925050819055505b846002600086815260200190815260200160002060006101000a81548173ffffffffffffffffffffffffffffffffffffffff021916908373ffffffffffffffffffffffffffffffffffffffff160217905550838573ffffffffffffffffffffffffffffffffffffffff168273ffffffffffffffffffffffffffffffffffffffff167fddf252ad1be2c89b69c2b068fc378daa952ba7f163c4a11628f55a4df523b3ef60405160405180910390a4809150509392505050565b6000600760009054906101000a900473ffffffffffffffffffffffffffffffffffffffff16905081600760006101000a81548173ffffffffffffffffffffffffffffffffffffffff021916908373ffffffffffffffffffffffffffffffffffffffff1602179055508173ffffffffffffffffffffffffffffffffffffffff168173ffffffffffffffffffffffffffffffffffffffff167f8be0079c531659141344cd1fd0a4f28419497f9722a3daafe3b4186f6b6457e060405160405180910390a35050565b600073ffffffffffffffffffffffffffffffffffffffff168273ffffffffffffffffffffffffffffffffffffffff160361212957816040517f5b08ba180000000000000000000000000000000000000000000000000000000081526004016121209190612e55565b60405180910390fd5b80600560008573ffffffffffffffffffffffffffffffffffffffff1673ffffffffffffffffffffffffffffffffffffffff16815260200190815260200160002060008473ffffffffffffffffffffffffffffffffffffffff1673ffffffffffffffffffffffffffffffffffffffff16815260200190815260200160002060006101000a81548160ff0219169083151502179055508173ffffffffffffffffffffffffffffffffffffffff168373ffffffffffffffffffffffffffffffffffffffff167f17307eab39ab6107e8899845ad3d59bd9653f200f220920489ca2b5937696c318360405161221a9190612c98565b60405180910390a3505050565b60008373ffffffffffffffffffffffffffffffffffffffff163b11156123d1578273ffffffffffffffffffffffffffffffffffffffff1663150b7a02868685856040518563ffffffff1660e01b81526004016122869493929190613d89565b6020604051808303816000875af19250505080156122c257506040513d601f19601f820116820180604052508101906122bf9190613dea565b60015b612346573d80600081146122f2576040519150601f19603f3d011682016040523d82523d6000602084013e6122f7565b606091505b50600081510361233e57836040517f64a0ae920000000000000000000000000000000000000000000000000000000081526004016123359190612e55565b60405180910390fd5b805181602001fd5b63150b7a0260e01b7bffffffffffffffffffffffffffffffffffffffffffffffffffffffff1916817bffffffffffffffffffffffffffffffffffffffffffffffffffffffff1916146123cf57836040517f64a0ae920000000000000000000000000000000000000000000000000000000081526004016123c69190612e55565b60405180910390fd5b505b5050505050565b606060405180602001604052806000815250905090565b60606123fa82611a8b565b5060006124056123d8565b905060008151116124255760405180602001604052806000815250612450565b8061242f8461276f565b604051602001612440929190613d10565b6040516020818303038152906040525b915050919050565b60007f01ffc9a7000000000000000000000000000000000000000000000000000000007bffffffffffffffffffffffffffffffffffffffffffffffffffffffff1916827bffffffffffffffffffffffffffffffffffffffffffffffffffffffff1916149050919050565b80806124fb5750600073ffffffffffffffffffffffffffffffffffffffff168273ffffffffffffffffffffffffffffffffffffffff1614155b1561262f57600061250b84611a8b565b9050600073ffffffffffffffffffffffffffffffffffffffff168373ffffffffffffffffffffffffffffffffffffffff161415801561257657508273ffffffffffffffffffffffffffffffffffffffff168173ffffffffffffffffffffffffffffffffffffffff1614155b801561258957506125878184611793565b155b156125cb57826040517fa9fbf51f0000000000000000000000000000000000000000000000000000000081526004016125c29190612e55565b60405180910390fd5b811561262d57838573ffffffffffffffffffffffffffffffffffffffff168273ffffffffffffffffffffffffffffffffffffffff167f8c5be1e5ebec7d5bd14f71427d1e84f3dd0314c0f7b2291e5b200ac8c7c3b92560405160405180910390a45b505b836004600085815260200190815260200160002060006101000a81548173ffffffffffffffffffffffffffffffffffffffff021916908373ffffffffffffffffffffffffffffffffffffffff16021790555050505050565b612691838361283d565b6126a661269c611b50565b6000858585612227565b505050565b6126b6838383612936565b61276a57600073ffffffffffffffffffffffffffffffffffffffff168373ffffffffffffffffffffffffffffffffffffffff160361272b57806040517f7e2732890000000000000000000000000000000000000000000000000000000081526004016127229190612df9565b60405180910390fd5b81816040517f177e802f000000000000000000000000000000000000000000000000000000008152600401612761929190613e17565b60405180910390fd5b505050565b60606000600161277e846129f7565b01905060008167ffffffffffffffff81111561279d5761279c612ee6565b5b6040519080825280601f01601f1916602001820160405280156127cf5781602001600182028036833780820191505090505b509050600082602001820190505b600115612832578080600190039150507f3031323334353637383961626364656600000000000000000000000000000000600a86061a8153600a8581612826576128256139d4565b5b049450600085036127dd575b819350505050919050565b600073ffffffffffffffffffffffffffffffffffffffff168273ffffffffffffffffffffffffffffffffffffffff16036128af5760006040517f64a0ae920000000000000000000000000000000000000000000000000000000081526004016128a69190612e55565b60405180910390fd5b60006128bd83836000611dd8565b9050600073ffffffffffffffffffffffffffffffffffffffff168173ffffffffffffffffffffffffffffffffffffffff16146129315760006040517f73c6ac6e0000000000000000000000000000000000000000000000000000000081526004016129289190612e55565b60405180910390fd5b505050565b60008073ffffffffffffffffffffffffffffffffffffffff168373ffffffffffffffffffffffffffffffffffffffff16141580156129ee57508273ffffffffffffffffffffffffffffffffffffffff168473ffffffffffffffffffffffffffffffffffffffff1614806129af57506129ae8484611793565b5b806129ed57508273ffffffffffffffffffffffffffffffffffffffff166129d583611b13565b73ffffffffffffffffffffffffffffffffffffffff16145b5b90509392505050565b600080600090507a184f03e93ff9f4daa797ed6e38ed64bf6a1f0100000000000000008310612a55577a184f03e93ff9f4daa797ed6e38ed64bf6a1f0100000000000000008381612a4b57612a4a6139d4565b5b0492506040810190505b6d04ee2d6d415b85acef81000000008310612a92576d04ee2d6d415b85acef81000000008381612a8857612a876139d4565b5b0492506020810190505b662386f26fc100008310612ac157662386f26fc100008381612ab757612ab66139d4565b5b0492506010810190505b6305f5e1008310612aea576305f5e1008381612ae057612adf6139d4565b5b0492506008810190505b6127108310612b0f576127108381612b0557612b046139d4565b5b0492506004810190505b60648310612b325760648381612b2857612b276139d4565b5b0492506002810190505b600a8310612b41576001810190505b80915050919050565b8260038101928215612bb6579160200282015b82811115612bb55782518260006101000a81548173ffffffffffffffffffffffffffffffffffffffff021916908373ffffffffffffffffffffffffffffffffffffffff16021790555091602001919060010190612b5d565b5b509050612bc39190612be9565b5090565b6040518060600160405280600390602082028036833780820191505090505090565b5b80821115612c02576000816000905550600101612bea565b5090565b6000604051905090565b600080fd5b600080fd5b6000819050919050565b612c2d81612c1a565b8114612c3857600080fd5b50565b600081359050612c4a81612c24565b92915050565b600060208284031215612c6657612c65612c10565b5b6000612c7484828501612c3b565b91505092915050565b60008115159050919050565b612c9281612c7d565b82525050565b6000602082019050612cad6000830184612c89565b92915050565b60007fffffffff0000000000000000000000000000000000000000000000000000000082169050919050565b612ce881612cb3565b8114612cf357600080fd5b50565b600081359050612d0581612cdf565b92915050565b600060208284031215612d2157612d20612c10565b5b6000612d2f84828501612cf6565b91505092915050565b600081519050919050565b600082825260208201905092915050565b60005b83811015612d72578082015181840152602081019050612d57565b60008484015250505050565b6000601f19601f8301169050919050565b6000612d9a82612d38565b612da48185612d43565b9350612db4818560208601612d54565b612dbd81612d7e565b840191505092915050565b60006020820190508181036000830152612de28184612d8f565b905092915050565b612df381612c1a565b82525050565b6000602082019050612e0e6000830184612dea565b92915050565b600073ffffffffffffffffffffffffffffffffffffffff82169050919050565b6000612e3f82612e14565b9050919050565b612e4f81612e34565b82525050565b6000602082019050612e6a6000830184612e46565b92915050565b612e7981612e34565b8114612e8457600080fd5b50565b600081359050612e9681612e70565b92915050565b60008060408385031215612eb357612eb2612c10565b5b6000612ec185828601612e87565b9250506020612ed285828601612c3b565b9150509250929050565b600080fd5b600080fd5b7f4e487b7100000000000000000000000000000000000000000000000000000000600052604160045260246000fd5b612f1e82612d7e565b810181811067ffffffffffffffff82111715612f3d57612f3c612ee6565b5b80604052505050565b6000612f50612c06565b9050612f5c8282612f15565b919050565b600067ffffffffffffffff821115612f7c57612f7b612ee6565b5b612f8582612d7e565b9050602081019050919050565b82818337600083830152505050565b6000612fb4612faf84612f61565b612f46565b905082815260208101848484011115612fd057612fcf612ee1565b5b612fdb848285612f92565b509392505050565b600082601f830112612ff857612ff7612edc565b5b8135613008848260208601612fa1565b91505092915050565b6000806040838503121561302857613027612c10565b5b600083013567ffffffffffffffff81111561304657613045612c15565b5b61305285828601612fe3565b925050602061306385828601612c3b565b9150509250929050565b6000806040838503121561308457613083612c10565b5b600061309285828601612c3b565b925050602083013567ffffffffffffffff8111156130b3576130b2612c15565b5b6130bf85828601612fe3565b9150509250929050565b6000806000606084860312156130e2576130e1612c10565b5b60006130f086828701612e87565b935050602061310186828701612e87565b925050604061311286828701612c3b565b9150509250925092565b6000806040838503121561313357613132612c10565b5b600061314185828601612c3b565b925050602061315285828601612c3b565b9150509250929050565b60006020828403121561317257613171612c10565b5b600061318084828501612e87565b91505092915050565b61319281612c7d565b811461319d57600080fd5b50565b6000813590506131af81613189565b92915050565b600080604083850312156131cc576131cb612c10565b5b60006131da85828601612e87565b92505060206131eb858286016131a0565b9150509250929050565b600067ffffffffffffffff8211156132105761320f612ee6565b5b61321982612d7e565b9050602081019050919050565b6000613239613234846131f5565b612f46565b90508281526020810184848401111561325557613254612ee1565b5b613260848285612f92565b509392505050565b600082601f83011261327d5761327c612edc565b5b813561328d848260208601613226565b91505092915050565b600080600080608085870312156132b0576132af612c10565b5b60006132be87828801612e87565b94505060206132cf87828801612e87565b93505060406132e087828801612c3b565b925050606085013567ffffffffffffffff81111561330157613300612c15565b5b61330d87828801613268565b91505092959194509250565b600060039050919050565b600081905092915050565b6000819050919050565b61334281612e34565b82525050565b60006133548383613339565b60208301905092915050565b6000602082019050919050565b61337681613319565b6133808184613324565b925061338b8261332f565b8060005b838110156133bc5781516133a38782613348565b96506133ae83613360565b92505060018101905061338f565b505050505050565b60006060820190506133d9600083018461336d565b92915050565b600080604083850312156133f6576133f5612c10565b5b600061340485828601612e87565b925050602061341585828601612e87565b9150509250929050565b60006060820190506134346000830186612c89565b81810360208301526134468185612d8f565b90506134556040830184612dea565b949350505050565b7f4e487b7100000000000000000000000000000000000000000000000000000000600052602260045260246000fd5b600060028204905060018216806134a457607f821691505b6020821081036134b7576134b661345d565b5b50919050565b7f4e487b7100000000000000000000000000000000000000000000000000000000600052601160045260246000fd5b60006134f782612c1a565b91507fffffffffffffffffffffffffffffffffffffffffffffffffffffffffffffffff8203613529576135286134bd565b5b600182019050919050565b60008190508160005260206000209050919050565b60006020601f8301049050919050565b600082821b905092915050565b6000600883026135967fffffffffffffffffffffffffffffffffffffffffffffffffffffffffffffffff82613559565b6135a08683613559565b95508019841693508086168417925050509392505050565b6000819050919050565b60006135dd6135d86135d384612c1a565b6135b8565b612c1a565b9050919050565b6000819050919050565b6135f7836135c2565b61360b613603826135e4565b848454613566565b825550505050565b600090565b613620613613565b61362b8184846135ee565b505050565b5b8181101561364f57613644600082613618565b600181019050613631565b5050565b601f8211156136945761366581613534565b61366e84613549565b8101602085101561367d578190505b61369161368985613549565b830182613630565b50505b505050565b600082821c905092915050565b60006136b760001984600802613699565b1980831691505092915050565b60006136d083836136a6565b9150826002028217905092915050565b6136e982612d38565b67ffffffffffffffff81111561370257613701612ee6565b5b61370c825461348c565b613717828285613653565b600060209050601f83116001811461374a5760008415613738578287015190505b61374285826136c4565b8655506137aa565b601f19841661375886613534565b60005b828110156137805784890151825560018201915060208501945060208101905061375b565b8683101561379d5784890151613799601f8916826136a6565b8355505b6001600288020188555050505b505050505050565b60006040820190506137c76000830185612dea565b81810360208301526137d98184612d8f565b90509392505050565b7f50726f7065727479206e6f7420666f722073616c650000000000000000000000600082015250565b6000613818601583612d43565b9150613823826137e2565b602082019050919050565b600060208201905081810360008301526138478161380b565b9050919050565b7f546f6b656e20646f6573206e6f74206578697374000000000000000000000000600082015250565b6000613884601483612d43565b915061388f8261384e565b602082019050919050565b600060208201905081810360008301526138b381613877565b9050919050565b7f496e73756666696369656e742066756e64730000000000000000000000000000600082015250565b60006138f0601283612d43565b91506138fb826138ba565b602082019050919050565b6000602082019050818103600083015261391f816138e3565b9050919050565b7f416c7265616479206f776e656400000000000000000000000000000000000000600082015250565b600061395c600d83612d43565b915061396782613926565b602082019050919050565b6000602082019050818103600083015261398b8161394f565b9050919050565b600061399d82612c1a565b91506139a883612c1a565b92508282026139b681612c1a565b915082820484148315176139cd576139cc6134bd565b5b5092915050565b7f4e487b7100000000000000000000000000000000000000000000000000000000600052601260045260246000fd5b6000613a0e82612c1a565b9150613a1983612c1a565b925082613a2957613a286139d4565b5b828204905092915050565b6000613a3f82612c1a565b9150613a4a83612c1a565b9250828203905081811115613a6257613a616134bd565b5b92915050565b7f4e487b7100000000000000000000000000000000000000000000000000000000600052603260045260246000fd5b7f4e6f7420746865206f776e657200000000000000000000000000000000000000600082015250565b6000613acd600d83612d43565b9150613ad882613a97565b602082019050919050565b60006020820190508181036000830152613afc81613ac0565b9050919050565b7f50726f7065727479206973206e6f74206c697374656420666f722073616c6500600082015250565b6000613b39601f83612d43565b9150613b4482613b03565b602082019050919050565b60006020820190508181036000830152613b6881613b2c565b9050919050565b6000819050919050565b6000613b94613b8f613b8a84613b6f565b6135b8565b612c1a565b9050919050565b613ba481613b79565b82525050565b6000602082019050613bbf6000830184613b9b565b92915050565b6000606082019050613bda6000830186612e46565b613be76020830185612dea565b613bf46040830184612e46565b949350505050565b7f526f79616c747920746f6f206869676800000000000000000000000000000000600082015250565b6000613c32601083612d43565b9150613c3d82613bfc565b602082019050919050565b60006020820190508181036000830152613c6181613c25565b9050919050565b7f5072696365206d7573742062652067726561746572207468616e207a65726f00600082015250565b6000613c9e601f83612d43565b9150613ca982613c68565b602082019050919050565b60006020820190508181036000830152613ccd81613c91565b9050919050565b600081905092915050565b6000613cea82612d38565b613cf48185613cd4565b9350613d04818560208601612d54565b80840191505092915050565b6000613d1c8285613cdf565b9150613d288284613cdf565b91508190509392505050565b600081519050919050565b600082825260208201905092915050565b6000613d5b82613d34565b613d658185613d3f565b9350613d75818560208601612d54565b613d7e81612d7e565b840191505092915050565b6000608082019050613d9e6000830187612e46565b613dab6020830186612e46565b613db86040830185612dea565b8181036060830152613dca8184613d50565b905095945050505050565b600081519050613de481612cdf565b92915050565b600060208284031215613e0057613dff612c10565b5b6000613e0e84828501613dd5565b91505092915050565b6000604082019050613e2c6000830185612e46565b613e396020830184612dea565b939250505056fea26469706673582212200ff675b629bbf2e03e38fd7003d7bbd33979672cda6641a6fad91ab19df86d4e64736f6c634300081c0033",
  "linkReferences": {},
  "deployedLinkReferences": {}
}